:100000000C94B7060C94EF060C94EF060C944F2C4E
:100010000C94EF060C94EF060C94EF060C94EF068C
:100020000C94EF060C94EF060C94B8140C94011B7E
:100030000C9441260C94EF060C94EF060C94EF06FA
:100040000C94EF060C94EF060C94EF060C94EF065C
:100050000C94EF060C9491150C94EF060C94EF069B
:100060000C94EF060C94EF060C94EF060C94EF063C
:100070000C94EF060C94EF060C94EF060C94EF062C
:100080000C94EF060C94EF060C94EF060C94EF061C
:100090000C94EF060C94EF060C94EF060C94EF060C
:1000A0000C94EF060C94EF060C94EF0629003A002E
:1000B0003B003C003D003E002B0014001A000800ED
:1000C00015001700E10004001600070009000A00EF
:1000D000E0001D001B0006001900050000002D00B7
:1000E0002152E300E2002C002A00430042004100BC
:1000F00040003F002F00130012000C0018001C00ED
:10010000340033000F000E000D000B00E500380036
:100110003700360010001100000000002252E300FA
:10012000E600280001003A003B003C003D003E0094
:1001300001000000000025142614000001002D1409
:100140002402241427140000010064143200220247
:100150000000000000003014000001000100010058
:100160004C0043004200410040003F0000002302D9
:100170002702640264001E021414370238002602AB
:1001800025022D02010000001F0231023000300262
:100190000000210201000100010001000100000037
:1001A0000000000000000352010000004A0052005D
:1001B0004D00000000000000500051004F00000002
:1001C00001000000000000000000000000004600E8
:1001D0000100010000000100AE0056000000000018
:1001E00000005500A90057002600250024005400F7
:1001F000AA0085002300220021000000A80067005B
:1002000020001F001E00E30000004900010027003D
:100210000100010029001E001F0020002100220013
:100220002B0014001A00080015001700E10004005C
:100230001600070009000A00E0001D001B00060070
:100240001900050000002D002152E300E2002C00FF
:100250002A00270026002500240023002F00130079
:1002600012000C0018001C00280033000F000E00C4
:100270000D000B00E50038003700360010001100BB
:10028000000000520252E300E600280000DA02817A
:10029000FFD9F1DB20A4A62EAF00A0C0D30000A19F
:1002A000C8D30000AED580A81F408D1420000001E7
:1002B0000101010101010101020202020202020226
:1002C00002030303030303030304040404040404F8
:1002D00005050505050606060606070707070708BC
:1002E000080808090909090A0A0A0B0B0B0C0C0C6F
:1002F0000D0D0D0E0E0E0F0F0F1010111111121209
:1003000013131414151516161717181819191A1A85
:100310001B1B1C1D1D1E1E1F2020212222232424E6
:10032000252626272829292A2B2C2D2D2E2F303122
:100330003232333435363738393A3B3C3D3E3F4034
:100340004142434445464748494A4C4D4E4F50511F
:100350005354555658595A5B5D5E5F6162646566D9
:1003600068696B6C6D6F7072737577787A7B7D7E60
:100370008082838587888A8C8E8F91939596989AB0
:100380009C9EA0A2A3A5A7A9ABADAFB1B3B5B7BAC8
:10039000BCBEC0C2C4C6C9CBCDCFD1D4D6D8DBDD9C
:1003A000DFE2E4E7E9EBEEF0F3F5F8FAFDFF00AF8A
:1003B00000AE000000E000F8C0F8E0C0FC007E18CD
:1003C0000080000280F000C080F8C0E070603C381F
:1003D0003C1C003F0C0F1F030701C300E08000E03E
:1003E00080F880C0F7C76F7B3930008000C000C044
:1003F000C2E000403830381E181E0F0C07070703F4
:10040000032121313018181C080C0E07060703C3FE
:1004100003014CCCC2C24149092B2A6A6E24240430
:100420009292B1F1F1F2E6A4A40404282828282825
:1004300028286C696C792000209D9E9F2020BDBEDD
:10044000BF2020DDDEDF2000209495962020B4B56B
:10045000B62020D4D5D62000209798992020B7B870
:10046000B92020D7D8D92000209A9B9C2020BABB45
:10047000BC2020DADBDC2000202020202000A7A8E0
:1004800000AFB000C600CA00C800A5A600ADAE000F
:100490008788008F9000C500C900C700CB00858603
:1004A000008D8E00ABAC00CFD000C600CA00C800E3
:1004B000A9AA00B1B2008B8C00CDCE00C500C90046
:1004C000C700CB00898A00919200202000532000B1
:1004D0002020004320002020004E200000000010BB
:1004E00000000000000000081C08000000000000E0
:1004F00000000200000000001000000000000000EA
:10050000200000000000000000020040E040000069
:1005100000000000040000000080C080C0800000D7
:1005200000000000E0008000F00000C000000000BB
:100530000000004000000000000001008100C00039
:10054000FE00FC00FF20FFF00FF000FF00000000A5
:100550001000000000009000F80000F8FF10FF8479
:10056000FF60FF36FF0FFF3F005F00058000800047
:10057000C03800ECF000FB80FFF0FFEFFFE8FF0366
:10058000FF0CFF00FF00030000F80080FF20FFD0F9
:10059000FFE0FEF8FFFCFFFF0FFF013FFF000F0031
:1005A00001000300FE80FE00C0FFC4FBFFFEFFFF52
:1005B000FF3FFFFF07FF033F000FC0000000B80030
:1005C000FF40BEF0FFF1FFFEFFFFFFFF1FFF6700D0
:1005D000EF001F0000070000E000FFF0FF88FFC4ED
:1005E000FFF8FFFFFFFFFFFF8F7F0FFF0007FE00F9
:1005F0000700000000F800C03FF8E7FFFFFFFF1F03
:10060000FFFF1F3F01FF0B00FF000005000000E09F
:1006100000F86080FEE3FCFF1EFFFF23FF09FF20C0
:10062000003F0200000F004000C000FCE0FCF0FFB3
:10063000FF7FFCFF0FFF071F00010F000F008170FD
:100640000CF0800000E4F8E6703FCFFF1FFF48FF8A
:100650000F000700004360F8F0FE38FE00FC0300C6
:10066000C872CFFC00030F01E01CE003000F000084
:100670000000000000F806F900030007FF00101258
:10068000C9F0CFB47F80E01E0140655EE00000F05D
:100690000CF000807E018093FCC000000000000090
:1006A00089182C46000721101080091331BFFF0064
:1006B000081AF70F0000444534BFB80010F008F4E2
:1006C0001811FC18FB0E10F804F810201809FF0C84
:1006D000EA1F286030F820C04233210005010902DA
:1006E000A10185020901A1000509190129081500C8
:1006F000250195087501810205010930093115812F
:10070000257F95027508810609381581257F950199
:1007100075088106050C0A38021581257F9501753B
:10072000088106C0C005010980A101850319012ABD
:10073000B700150126B700950175108100C0050CA2
:100740000901A101850419012AA002150126A002B0
:10075000950175108100C005010906A10105071961
:10076000E029E715002501950875018102950175BD
:100770000881010507190029FF150026FF009506CD
:100780007508810005081901290515002501950541
:1007900075019102950175039101C009023B0002A8
:1007A0000100A0FA09040000010301010009211160
:1007B000010001224400070581030800010904012A
:1007C000000103000000092111010001227B000744
:1007D00005820320000112010002000000081D8DA7
:1007E000C2B400010102000126034100750072003D
:1007F0006F007200610020004C0069006C007900FD
:1008000035003800200072006500760031000000DD
:100810001803730070006C00690074006B006200C4
:100820002E0063006F006D00000004030904000047
:10083000000000003E5B4F5B3E003E6B4F6B3E0096
:100840001C3E7C3E1C00183C7E3C18001C577D570B
:100850001C001C5E7F5E1C0000183C180000FFE7B7
:10086000C3E7FF00001824180000FFE7DBE7FF00E4
:1008700030483A060E00262979292600407F0505D2
:100880000700407F05253F005A3CE73C5A007F3E69
:100890001C1C0800081C1C3E7F0014227F22140030
:1008A0005F5F005F5F0006097F017F00006689953A
:1008B0006A0060606060600094A2FFA29400080477
:1008C0007E04080010207E20100008082A1C080062
:1008D000081C2A0808001E10101010000C1E0C1E08
:1008E0000C0030383E383000060E3E0E0600000088
:1008F0000000000000005F0000000007000700008B
:10090000147F147F1400242A7F2A12002313086402
:100910006200364956205000000807030000001C02
:10092000224100000041221C00002A1C7F1C2A00DA
:1009300008083E0808000080703000000808080819
:1009400008000000606000002010080402003E5112
:1009500049453E0000427F40000072494949460037
:100960002141494D33001814127F10002745454599
:1009700039003C4A494931004121110907003649F3
:1009800049493600464949291E000000140000006C
:100990000040340000000008142241001414141414
:1009A00014000041221408000201590906003E41CA
:1009B0005D594E007C1211127C007F494949360076
:1009C0003E41414122007F4141413E007F4949492A
:1009D00041007F09090901003E41415173007F0830
:1009E00008087F0000417F4100002040413F010096
:1009F0007F08142241007F40404040007F021C02DB
:100A00007F007F0408107F003E4141413E007F0986
:100A1000090906003E4151215E007F09192946005F
:100A200026494949320003017F0103003F4040400D
:100A30003F001F2040201F003F4038403F0063140C
:100A4000081463000304780403006159494D43000E
:100A5000007F414141000204081020000041414153
:100A60007F000402010204004040404040000003B7
:100A7000070800002054547840007F284444380080
:100A8000384444442800384444287F00385454549F
:100A9000180000087E0902001824241C78007F0832
:100AA0000404780000447D4000002040403D0000E8
:100AB0007F102844000000417F4000007C0478043F
:100AC00078007C08040478003844444438007C18DA
:100AD00024241800182424187C007C08040408002E
:100AE00048545454240004043F4424003C40402013
:100AF0007C001C2040201C003C4030403C0044282E
:100B0000102844004C9090907C004464544C440065
:100B10000008364100000000770000000041360860
:100B200000000201020402003C2623263C000000D3
:100B3000000000000000C0E0F0F8F81800C0F0FC71
:100B4000FEFFFFFFFFFFFFFF7E00000000F8042212
:100B500052E2424242E252222222428202022222F5
:100B60000204F80000F804020282422242820202D9
:100B700002824222122242820204F80000F8FCDEC5
:100B8000AE1EBEBEBE1EAEDEDEDEBE7EFEFEDEDE05
:100B9000FEFCF80000F8FCFEFE7EBEDEBE7EFEFE21
:100BA0000000000000008080404020201010080855
:100BB00010102020404080808080C0C0E0E0F0F035
:100BC000F8F8F0F0E0E0C0C0808080804040202055
:100BD000101008081010202040408080808040C005
:100BE00060A050B058A850B060A040C0808000F80D
:100BF000FCFEFFE000FFFFFFFFFFFF80FFFFFFFFA6
:100C0000FFFFFFFFFF1F070100000000001F20443F
:100C10004A47424242474A4440404040414244449D
:100C200040201F00001F20404140404040404140C4
:100C300041414F4848484F4141201F00001F3F7B22
:100C400075787D7D7D78757B7F7F7F7F7E7D7B7BEB
:100C50007F3F1F00001F3F7F7E7F7F7F7F7F7E7FE4
:100C600000000000000088885D5D3E3E7C7CF8F856
:100C70007C7C3E3E5D5D88888888555523234747A8
:100C80008F8F47472323555588888888D5D5E2E23A
:100C9000C4C48888C4C4E2E2D5D5888888885DD574
:100CA0006BB66DD6ADDA6DD66BB65DD588880003B0
:100CB0000F1F3F3F3F3F1F1F3F3F7F7F7F3F3F1F34
:100CC0003F7F7F7F7F7C7878381C0F0004F800001E
:100CD000F804201F00001F20FCF80000F8043F1F4C
:100CE00000001F2004F80000F8FC201F00001F3F38
:100CF000FCF80000F8FC3F1F00001F3FFE7EBEDE38
:100D0000EEDEBE7EFEFCF8007E7E70777777707E2A
:100D10007E3F1F00000000000000000000000000F7
:100D200000000000000000000101020204040808A5
:100D30000404020201010000000001010202040497
:100D4000080804040202010100000000010103037D
:100D500007070F0F0707030301010000000001014F
:100D6000030205060D0A0506030201010000112415
:100D70001FBECFEFDAE0DEBFCDBF04B603FE18C062
:100D80008091080790910907A0910A07B0910B077D
:100D90008730904BA740B04B59F41092080710923F
:100DA000090710920A0710920B07E0E0F8E3099593
:100DB00012E0A0E0B1E0E6E4FDE502C005900D928E
:100DC000AE3CB107D9F727E0AEECB2E001C01D920E
:100DD000A830B207E1F70E9468260C944D2E0C94BF
:100DE00000008091F504837051F084608093F504D5
:100DF000109263018091F40481608093F40408955B
:100E0000482F2091F0049091B70457E0291302C0B5
:100E100080E0089530E0529FF001539FF00D1124BF
:100E2000E854FB4F8181681306C08081481303C0DA
:100E300085818111EECF2F5F3F4F2770E7CF9091D3
:100E4000F504937059F08093F6046093F70440938F
:100E5000F8048091F40481608093F4040895E8ED2F
:100E6000F0E080818E7F80831092E2001092DA00A1
:100E70001092E100A0EEB0E08C9181608C938081B3
:100E80008F77808319BCA7EDB0E08C918E7F8C9317
:100E900080818F7E80831092A00408952091E400C9
:100EA0003091E50095E6A9012091EC00822F817038
:100EB00020FF06C08091E80080FF06C080E0089512
:100EC0002091E80022FD1AC08091AD04882389F0AA
:100ED000853089F08091EB0085FD0FC02091E40002
:100EE0003091E50042175307F9F29150E1F684E0A2
:100EF000089582E0089583E0089581E00895809147
:100F0000AF0487FF13C08091E80082FF06C0809184
:100F1000E8008B778093E80004C08091AD048111D4
:100F2000F2CF08958091AD048823D9F38091E80031
:100F300080FFF8CF8091E8008E77ECCF982F9093C8
:100F4000E900242F762F50E0891731F07091EC00E2
:100F50002091ED005091F00021FD07C09F5F973078
:100F600071F78093E90081E008953091EB003E7FB6
:100F70003093EB003091ED003D7F3093ED003091E8
:100F8000EB0031603093EB007093EC002093ED00A8
:100F90005093F0002091EE0027FDE0CF80E008950F
:100FA000B0E0A0E0E6EDF7E00C94892DC8EDD0E0CC
:100FB00088818F7E8883E7EDF0E080818160808387
:100FC00084E082BF81E08093A00488818E7F888343
:100FD00002EE10E0F80110821092DA0081EEC82EC5
:100FE000D12CF601108288818F7788838881806870
:100FF000888388818F7D888319BC1092AD041092FC
:10100000AE041092AC041092AB0490EEE92EF12CD9
:10101000F70180818B7F808388818160888342E0B3
:1010200060E080E00E949E07F60180818E7F8083D1
:10103000F801808181608083808188608083F701EE
:1010400080818E7F8083888180618883CDB7DEB781
:10105000E8E00C94A52DFC018091B5049091B604B4
:1010600086179707A0F06115710529F49091E800A3
:101070009E779093E80090E06115710551F491110D
:1010800008C08091E80082FF34C080E00895BC0170
:10109000F2CF8091AD048823C1F18530C1F18091F8
:1010A000E80083FD30C08091E80082FDEACF8091A6
:1010B000E80080FFE1CF8091F3002091F200382F0B
:1010C0006115710519F02830310558F091E028308C
:1010D000310509F090E02091E8002E772093E80098
:1010E000CBCF81918093F100615071092F5F3F4F09
:1010F000E7CF8091AD04882341F0853041F08091A5
:10110000E80083FFBECF81E0089582E0089583E088
:1011100008958091A20408952FB7F89460919C04DB
:1011200070919D0480919E0490919F042FBF08951B
:101130009C01FC0132969FEF80E04191461751F0EF
:101140009F3F19F4411101C0982F8F5F8630A9F796
:101150009F3F09F40895290F311D97FD3A95F90134
:1011600062830895A3E0B0E0E8EBF8E00C948F2DE3
:101170002091990430919A0428173907A1F090938F
:101180009A0480939904E0919704F0919804309721
:1011900051F024E029839B838A830680F781E02D28
:1011A000CE01019609952396E2E00C94AB2DA3E0C5
:1011B000B0E0EDEDF8E00C948F2D20919504309186
:1011C000960428173907A1F090939604809395040C
:1011D000E0919704F0919804309751F023E029832F
:1011E0009B838A830680F781E02DCE0101960995C5
:1011F0002396E2E00C94AB2DCF93DF93209106076A
:101200003091070720503540A901460F571F413044
:10121000524020F060E072E0621B730B4091FE04CC
:101220005091FF04FC01C901620F731FC1E0D0E0BF
:101230008617970738F05093FF044093FE04DF9120
:10124000CF9108952491DC01A050BB4F3C913217FF
:1012500081F02C939C01A5E036952795AA95E1F79E
:10126000DE0102C0AA0FBB1F2A95E2F79D014A2B9F
:10127000532B01963196DCCFFC01680F791F8FEF5D
:1012800091E32191822728E030E087FF09C0880F91
:10129000892721503109C9F7E617F70791F7089513
:1012A000880FF7CFFA01811101C0FB01099508955C
:1012B00010929A030895E5EFF4E0248130E1231BB6
:1012C00008F420E024838091F40481608093F40486
:1012D0000895E5EFF4E0248130E1230F08F42FEFC7
:1012E00024838091F40481608093F4040895E5EFF1
:1012F000F4E0438120E1421B08F440E081816281F7
:1013000090E00E941F070895E5EFF4E0438120E19B
:10131000420F08F44FEF8181628190E00E941F0725
:101320000895E5EFF4E0628120E1621B08F460E0DB
:101330008181438190E00E941F070895E5EFF4E06A
:10134000628120E1620F08F46FEF8181438190E0B8
:101350000E941F070895E5EFF4E0818143816281D7
:101360008850990B0E941F070895E5EFF4E08181F2
:1013700090E04381628108960E941F070895809142
:10138000F50486958695815009F481E00E94F10666
:10139000089581E00E94F1060895FF920F931F9334
:1013A000CF93DF93182F062FF42ED0E0C0E02F2D1F
:1013B000402F612FCE010E943D0A2196C434D105F1
:1013C000B1F7CDB7DEB7E5E00C94A82D8091870387
:1013D00080FD16C081FD16C082FD16C08091860377
:1013E0008823A1F0883280F428E0829FC001112474
:1013F00068E270E00E94C22D862F672B39F00895B5
:1014000082E0089584E0089588E0089581E00895D9
:101410008091870380FD14C081FD14C082FD16C039
:1014200080918503882381F08E3180F420E5829FAE
:10143000C00111246EE170E00E94C22D862F089534
:1014400084E1089588E2089588E0089580E508958C
:10145000282F35EB2303C001112497FF04C08058C7
:101460009109892F089580589F4FFBCF80E0089500
:101470008FB185FB882780F90895FF920F931F9302
:10148000CF93DF93EC01F62E042F122F0E94380A1F
:10149000811123C0C232D1051CF1A297FE01EE0FCB
:1014A000FF1FDF01AC0FBD1FA556BC4F11968C91DD
:1014B00011978F1107C08C91801304C012968C91E4
:1014C000811771F081E080939A03EC0FFD1FE556C0
:1014D000FC4FF1820083128303C0C232D105F4F2C3
:1014E000CDB7DEB7E5E00C94A82DF894E82FE2958F
:1014F000EF70F0E031A1282F2F7081E090E001C063
:10150000880F2A95EAF7982F9095932391A392A19B
:10151000892B82A3789408959091650392FF10C05F
:1015200041E0282F2471243009F040E031E0282FD9
:101530002871283009F030E0431711F02CE08227A1
:1015400093FF10C041E0282F2471243109F040E0BE
:1015500031E0282F2871283109F030E0431711F0CD
:101560002CE082273091660330FF10C051E0282F15
:101570002171213009F050E041E0282F28712830F6
:1015800009F040E0541711F029E0822731FF10C024
:1015900041E0282F2171213109F040E031E0282F6E
:1015A0002871283109F030E0431711F029E0822733
:1015B00094FD877E089582389105B9F1B0F48133A6
:1015C000910509F47DC048F48932910509F46DC094
:1015D0008A32910509F47BC008958533910509F499
:1015E0005FC08933910509F10895833E9105D9F1D2
:1015F00038F4803E910529F1823E910579F10895F4
:10160000863E9105D9F1873E910509F43EC0843E9E
:10161000910541F52091660321FF24C08091650367
:1016200084FD19C087EE90E0089520916503237032
:1016300009F05AC02091660323FF14C089E290E0AC
:1016400008952091650320FD38C03091660330FF76
:1016500009C024FF43C090E080E008952091650315
:1016600022FDF7CF08952091650322FD3AC0309105
:10167000660330FD39C024FFF5CFEDCF209165031F
:1016800023FFF0CF24FDE7CFCDCF2091650323FDCD
:101690002EC03091660331FFEECF84EE90E00895C6
:1016A0002091650325FFDECFC9CF2091650325FD7D
:1016B00021C02091660323FFD5CF89E390E0D2CFEC
:1016C0002091650326FFCECF8AE290E00895209115
:1016D000650326FFC7CF81E390E0089583EE90E095
:1016E000089582EE90E0089580EE90E0089586EEF1
:1016F00090E0089585E390E00895972F7A30B8F44C
:101700006630A8F48430B0F470E026E0929F600D5B
:10171000711D1124FB019CE3899FE00DF11D112433
:10172000EE0FFF1FE455FF4F85919491089580E0DF
:1017300090E0089581E0FCCF1F93CF93DF930E9448
:10174000DB0AEC01C11580E5D807F0F5C11580E48E
:10175000D80708F09CC0C03ED10520F5CD3CD1058E
:1017600008F082C0C83AD10578F4C53AD10508F02E
:1017700073C0C130D10519F1209709F1C430D105EA
:10178000F0F4D0E0C0E01BC0C33CD105D0F7C85A8C
:10179000D0E0CC0FDD1FCB58DE4F0990D881C02D93
:1017A000D4640DC0C11580E2D80708F0D1C0C115BE
:1017B00081E0D80708F05AC0C83ED10510F7CE0125
:1017C000DF91CF911F910895C03682E5D80718F5B3
:1017D000C03482E5D80708F06BC0C03282E5D80774
:1017E00008F05FC0C11582E5D80708F497C02C2F18
:1017F0002695269580E2289F900111248C2F8370D6
:10180000C1E0D0E002C0CC0FDD1F8A95E2F7C22B09
:10181000D32BDD68D4CFC03A82E5D80760F4C03856
:1018200082E5D80708F459C0CF71D0E0DC2FCC276F
:10183000C46FD06AC4CFC03C82E5D80708F462C048
:10184000C03E82E5D80708F09CCFDC2FCC27CC2700
:10185000DF71C06FD06AB3CFC55AD0E0CE58DE4F2B
:10186000C881D0E0D064ABCFD065A9CF8D2F0E94C6
:101870008C0A182FCE0199270E94DB0AC12FD0E0D5
:10188000DC2FCC27CC27DF71C82BD92B98CFCE01EA
:1018900099270E94DB0ACC27DF70C82BD92BD06A8E
:1018A0008ECFCF71D0E0DC2FCC27C16FD06A87CF2D
:1018B0002C2F26952695277080E2289F90011124D1
:1018C0008C2F8370C1E0D0E002C0CC0FDD1F8A9561
:1018D000E2F7C22BD32BDC6872CF2C2F26952695EE
:1018E000277080E2289F900111248C2F8370C1E023
:1018F000D0E002C0CC0FDD1F8A95E2F7C22BD32BBC
:10190000DA685DCF8C2F8F710E948C0AC82FD0E0CF
:10191000DC2FCC27CC27DF71D06251CF8C2F8F7179
:101920000E948C0A55E0D695C7955A95E1F7CF707D
:10193000D0E0DC2FCC27282F30E084FF05C044E026
:10194000220F331F4A95E1F7C22BD32BD06937CF33
:101950008D2F8F710E948C0A182FCE0199270E941B
:10196000DB0AC12FD0E0DC2FCC27CC27DF71C82BBE
:10197000D92BD2CF809590916904982390936904D4
:1019800008958091F0049091B704981301C00895D0
:101990008F5F8770FACFB0E0A0E0E1EDFCE00C943F
:1019A000882D7C01009167041091680480910B03DD
:1019B00090910C03082B192BCFE0D0E0CC24C394DA
:1019C000D12CBC2EC6010C2E02C0880F991F0A9480
:1019D000E2F780239123892B49F4219790F7B12CCA
:1019E0008B2DCDB7DEB7E9E00C94A42DB7018C2F79
:1019F0000E947D0B0E949C0B019779F3F1CFCF934E
:101A0000DF93EC010E94CB0CBE010E947D0B0E9473
:101A10009C0BDF91CF9108959A3078F5863068F568
:101A2000E82FF0E086E0989FE00DF11D11249E2F35
:101A3000977083E0F695E7958A95E1F7EE0FFF1F23
:101A4000EE0FFF1FE652FD4F50E040E080E0219195
:101A500030E0092E02C0369527950A94E2F72170EE
:101A60003327042E01C0220F0A94EAF7822B4F5F1E
:101A70005F4F4430510559F7089580E008959A303A
:101A800098F5863088F5E82FF0E086E0989FE00D25
:101A9000F11D11248E2F877041E001C0440F8A95FB
:101AA000EAF783E0F695E7958A95E1F7EE0FFF1FD9
:101AB000EE0FFF1FE652FD4F30E020E070E0519145
:101AC000DF011197CB01022E02C0969587950A94EB
:101AD000E2F7817081958527842385278C932F5F7A
:101AE0003F4F2430310559F708959093680480934F
:101AF0006704089521E030E002C0220F331F8A9569
:101B0000E2F72095309580916704909168048223D4
:101B100093230E94750D0895909101038095892368
:101B200080930103282F277069F4891759F0909149
:101B3000660392FF07C08695869586950E947A0D6A
:101B400010920103089521E030E002C0220F331FFC
:101B50008A95E2F78091670490916804822B932B19
:101B60000E94750D089590930C0380930B030895C4
:101B7000FC0124812223C1F0808191810E94FF0C0D
:101B800092959F70963091F058F4925F9F709230CA
:101B900058F4803F19F030F4883E30F481E0089525
:101BA0009A5FF4CF843FD1F380E00895883EB0F38C
:101BB000813FD1F7F3CFA6E0B0E0E1EEFDE00C9479
:101BC0008E2D49835A8349815A819923A1F022237A
:101BD00091F0CA010E94CB0C182F682F89819A813D
:101BE0000E943F0D69817A81812F0E947D0B26968C
:101BF000E3E00C94AA2DCA010E940C0D182FF2CF1D
:101C0000CF93DF93C0910607D09107078A30C1F4C4
:101C10002091FD04CE0180509540622F70E00E941B
:101C20006B2D281B822F66E00E94B62DC82FC15055
:101C300018F4DF91CF91089580E20E94000EF7CF53
:101C40008D30E9F4C050D5402091FD04622F70E042
:101C5000CE010E946B2D281B822F9E01280F311D63
:101C60002115324018F080E0D0E0C0E0C80FD11D4F
:101C7000C050DB4FD0930707C0930607DACF96E03A
:101C8000FE01A0E0B7E001900D929A95E1F7803E49
:101C900008F458C086E0FE0111928A95E9F7C091D8
:101CA0000607D091070746E050E0BE0180E097E0CC
:101CB0000E94E52D9E0120503540892B41F1C9013C
:101CC00045E0969587954A95E1F741E050E0BA01E5
:101CD00002C0660F771F8A95E2F7CB016091FE0480
:101CE0007091FF04862B972BB9016B5F7F4FE5E066
:101CF00076956795EA95E1F702C0440F551F6A95FE
:101D0000E2F7842B952B9093FF048093FE042A5FC7
:101D10003F4F4091FD04642F70E0C9010E946B2D7C
:101D2000481B463010F4240F311D211572E037078F
:101D300010F030E020E020503B4F30930707209315
:101D4000060777CFF6E08F9FB0011124625D774FD1
:101D500046E050E0CE010E94DC2DA1CFCF93DF936F
:101D6000EC01FE018491811103C0DF91CF910895B0
:101D70000E94000E2196F5CF8091690490910A038C
:101D8000892B8093D00290916A04992391F0892B3A
:101D90008093D00220E082ED92E0FC013191CF01EE
:101DA00031112F5FF2E0883D9F07B9F721111092A2
:101DB0006A0448E050E062E073E080ED92E00E9447
:101DC000E52D892BA9F088E0E0EDF2E0A2E0B3E098
:101DD00001900D928A95E1F7E0919704F0919804B3
:101DE000309731F00280F381E02D80ED92E009958B
:101DF0000895882321F00E94BA0C0E94BC0E089519
:101E0000882339F090916904982B909369040E947B
:101E1000BC0E08950F931F93CF93DF938B01EA01BC
:101E20009091AD04943061F58093E9008FEF90912B
:101E3000E800815095FD06C095ED9A95F1F70000F8
:101E40008111F5CF8091E80085FF1AC00E944E07EE
:101E5000811111C08091E80085FD06C08091E800E5
:101E60008E778093E800F2CFF80181918F01809303
:101E7000F100219779F78091E8008E778093E80050
:101E8000DF91CF911F910F91089543E050E0BC0185
:101E900082E00E940A0F089546E050E0BC0182E013
:101EA0000E940A0F0895CF93DF93EC0148E050E0C1
:101EB000BC0181E00E940A0F88E0FE01A3EAB4E0C1
:101EC00001900D928A95E1F7DF91CF91089581E01D
:101ED0008093E00080E28093D8001092C9008FE1E7
:101EE0009EE40197F1F700C0000087E090EBDC0171
:101EF0008093080790930907A0930A07B0930B07F4
:101F000088E19CE00FB6F894A895809360000FBE1E
:101F100090936000FFCF80919A03882341F1539AF8
:101F20003BB1377F2BB128604FB7F8948BE993E032
:101F3000FC015191CF0168E02BB9000000C057FFB0
:101F40003BB9550F000000C000C000C03BB900C045
:101F50006A9591F7F4E087369F0751F74FBF8FE5F9
:101F600094E00197F1F700C0000010929A030895E1
:101F7000B0E0A0E0EEEBFFE00C94872D7C015B016C
:101F80006A018091520301E010E08A3010F40AE007
:101F900010E0C1E0D0E0B501C701F601099581115B
:101FA00004C021960C171D072CF4CDB7DEB7EAE06C
:101FB0000C94A32DCC9F9001CD9F300D300D11249A
:101FC00090E080E045E34A95F1F700000196821722
:101FD0009307C1F7E0CF80911903811110C0809160
:101FE000D80080618093D8008AE18A95F1F700C01B
:101FF0008091D90080FF0AC081E08093190381E0BD
:1020000090911903913009F080E0089582E0809367
:1020100019030E942F071092AD04F1CF0E94EB0F1D
:10202000882359F0E0919704F0919804309729F0B3
:102030000190F081E02D0995089580E008950F93B7
:102040001F930E94EB0F882329F00E948C081F9198
:102050000F9108950E948C0800915303109154032E
:102060002091550330915603600F711F821F931FFB
:10207000EECF0E941F100895B0E0A0E0E2E4F0E18E
:102080000C94892D6C017B0164E670E088E70E9466
:10209000C92A8C01E601EC0CFD1C17FD0BC0FE01EA
:1020A000849164E670E00E94352B8C012196CE1558
:1020B000DF0599F70E94AB2B81E00115110509F0AE
:1020C00080E0CDB7DEB7E8E00C94A52D80919104B7
:1020D00090919404911103C091E089270895882379
:1020E00069F062E070E080EB93E00E943C108111A7
:1020F00003C08091910408951092910480919104FD
:10210000EBCFCF93C0919104809194048823D1F0B8
:102110000E948C08605A75418F4F9F4F60938D04C9
:1021200070938E0480938F0490939004C11108C023
:1021300062E070E08EEA93E00E943C10811105C0DD
:10214000C09191048C2FCF91089581E080939104E8
:10215000F7CFB0E0A0E0EFEAF0E10C94862D0E940A
:102160001F10609392037093930380939403909352
:1021700095033091F504D32FD37019F0D32FD69552
:10218000D695209163012130D9F0222359F02230D5
:1021900009F422C1233009F429C1CDB7DEB7EBE041
:1021A0000C94A22D1092580160939603709397039C
:1021B000809398039093990381E080936301EDCF1E
:1021C0009091570181E0D9130BC0832F8370209128
:1021D000560130E091E08217130609F490E0892F50
:1021E000817080935A018091FA0490915901981757
:1021F00039F08093590140E060E080E00E94CD0911
:10220000DD2321F0D13069F080E042C080915A0195
:10221000882309F43DC040E060E080E00E94CD09E1
:10222000F3CFB09058018EE0B89EB02C11241EE080
:102230001B0D153408F014E40E94380A882319F0A5
:10224000133208F012E20E94380A811105C022E21E
:10225000B21610F4C2E2BC2E9090F6044091F7043E
:10226000E091F804F0E0E255FD4F411127C0F490F1
:102270000F2DCF2DCB2CD12CC11608F493C00E946A
:10228000380A882309F4A0C081E0123208F0BCCFDC
:10229000909158019F5F9093580181119AC082E0FC
:1022A0008093630180915A01811193C0DD2309F469
:1022B0009BC00E94380A0E94380A6FCFE42EF12C8E
:1022C000C491AC2EEC2FF0E0A6E09A9EC001112440
:1022D0002FEF30E0B9010E946B2D892D90E0880F1F
:1022E000991F55E5569FD001579FB00D11248A1BA9
:1022F0009B0B982E990C980ED901AE19BF09AE9F71
:10230000C001AF9F900DBE9F900D1124092F499DD4
:10231000A0011124452F5527D901A41BB50BAE9F51
:102320006001AF9FD00CBE9FD00C1124D901A91918
:10233000B109AE9DA001AF9D500DBE9D500D112461
:10234000452F5527241B350B2E9FA0012F9F500D85
:102350003E9F500D1124F52E62307105A1F050F40E
:102360006115710509F486CF6130710581F0F92E90
:102370000D2D80CF6430710569F080F066307105F5
:1023800009F478CFF4CFFC2EC92F052F73CFFC2E84
:10239000CD2D70CFF92E0C2FC52F6CCFC92F0A2D44
:1023A000FD2C68CFF601EF57FD4F808190915901C8
:1023B000892331F0202F4F2D6C2FC6010E943D0A3A
:1023C000BFEFCB1ADB0A58CF81E0143408F460CF9A
:1023D0001BCFD1116ECFE1CED0935701832F8370E5
:1023E000809356010E948B0F83E0E7CE8091F40426
:1023F000882351F048E050E068E170E085EF94E018
:102400000E94192E1092F404C0909603D090970366
:10241000E0909803F09099030E94EB0F8823C1F09D
:102420002FB7F89460919C0470919D0480919E0454
:1024300090919F042FBF6C197D098E099F0960310F
:1024400071058105910508F4A8CE10926301A5CE0F
:102450000E941F10F0CFE5EFF4E085E080838091CB
:10246000640190916501A091660181839283A383A9
:102470008FE784838FEF858348E050E068E170E068
:10248000CF010E94192E1092F404089590916603D2
:1024900092FB222720F9281779F080FB92F990937C
:1024A0006603609165037091660384E090E00E948A
:1024B000472E82E00E948C0D0895A4E0B0E0E3E690
:1024C000F2E10C948E2D40914603509147036091A8
:1024D0004803709149032FB7F89480919C04909120
:1024E0009D04A0919E04B0919F042FBF841B950B67
:1024F000A60BB70B11E084369105A105B10570F16B
:102500000E941F106E5F7F4F8F4F9F4F69837A83AA
:102510008B839C838091290190912A01855D9C4F3A
:102520004091280150E04530510510F044E050E062
:10253000BE016F5F7F4F0E94F22D85E090E00E9408
:10254000F52C182F882351F00E948C0860934603C5
:10255000709347038093480390934903812F2496F7
:10256000E3E00C94AA2D4F925F926F927F928F922C
:102570009F92AF92BF92EF92FF920F931F93CF93D0
:10258000DF937B01FB0140805180628073809FB7A5
:10259000F89480909C0490909D04A0909E04B0902C
:1025A0009F049FBF84189508A608B708F4E68F1605
:1025B0009104A104B10418F4C1E0442329F1C82F07
:1025C000880FDD0BFE0183E0EE0FFF1F8A95E1F718
:1025D000E050FF4F81819281855D9C4F408150E0AA
:1025E0000417150708F4A801B9010E94F22DCE01C5
:1025F0000E94F52CC82F882339F00E948C08F7011F
:1026000060837183828393838C2FDF91CF911F919D
:102610000F91FF90EF90BF90AF909F908F907F9021
:102620006F905F904F900895A1E0B0E0EAE1F3E190
:102630000C948D2D8091910489832091450390E025
:1026400041E02817190609F440E001E010E09E017E
:102650002F5F3F4F6EE473E087E00E94B312219634
:10266000E4E00C94A92DA9E0B0E0E9E3F3E10C94D7
:102670008D2D88E0E5EFF4E0DE01119601900D92DA
:102680008A95E1F7198649E050E06CE373E0CE01EA
:1026900001960E94E52D41E0892B09F440E009E014
:1026A00010E09E012F5F3F4F6AE473E086E00E94D6
:1026B000B3122996E4E00C94A92D0F931F93CF93A6
:1026C000DF93EC0145E050E061E373E00E94E52D0B
:1026D00041E0892B09F440E005E010E09E0163E24F
:1026E00073E082E00E94B312DF91CF911F910F91AE
:1026F00008954F925F927F928F929F92AF92BF9276
:10270000CF92DF92EF92FF920F931F93CF93DF93BD
:102710000F92CDB7DEB7C62E4A015901482E880F59
:102720005508C2010E94F52C782E882309F480C038
:10273000C20133E0880F991F3A95E1F7FC01E050A0
:10274000FF4F438150E04115510511F041E050E049
:1027500080509F4FFC0164817581655D7C4FCE0187
:1027600001960E94F22DF4014081518162817381B2
:102770002FB7F89480919C0490919D04A0919E04A1
:10278000B0919F042FBF841B950BA60BB70B84360B
:102790009105A105B10540F4B701C8010E943C09AB
:1027A0009981891709F444C00C2C000CDD08C6017E
:1027B0000E94F52C782E811113C0712C872D0F905B
:1027C000DF91CF911F910F91FF90EF90DF90CF900D
:1027D000BF90AF909F908F907F905F904F900895A3
:1027E000C60123E0880F991F2A95E1F7FC01E0500C
:1027F000FF4F438150E0E416F50608F4A70180502E
:102800009F4FFC0164817581655D7C4FC5010E940D
:10281000F22DB701C8010E943C0999818913CDCFDF
:102820000E948C08F4016083718382839383C6CFF6
:10283000A701B801C5010E94F22DC0CFA5E0B0E00C
:10284000E4E2F4E10C94892D6B0185E0E82EF12C93
:102850000CE213E09E012F5F3F4F4FE153E061E038
:1028600080E00E947913882349F095E0FE013196BB
:10287000AAE1B3E001900D929A95E1F795E0EAE1C3
:10288000F3E0D60101900D929A95E1F72596E8E0E4
:102890000C94A52DA8E0B0E0E0E5F4E10C948F2DB8
:1028A00066EE7EEF90E080E00E94472E60E082E0DE
:1028B00090E00E94292E60E083E090E00E94292EA3
:1028C00010920C0310920B0360E074E184E090E03E
:1028D0000E94472E60E086E090E00E94292E6FEF74
:1028E00087E090E00E94292E40E050E0BA0188E0A5
:1028F00090E00E943B2E60E084E290E00E94292E4E
:1029000060E087E190E00E94292E60E08CE090E09A
:102910000E94292E60E08DE090E00E94292E19820D
:102920001A821B821C821D821E821F82188648E02A
:1029300050E068E170E0CE0101960E94192E40E05F
:1029400050E0BA0180E290E00E943B2E40E050E06F
:10295000BA018FE090E00E943B2E40E050E0BA01C7
:1029600083E190E00E943B2E2896E2E00C94AB2D90
:102970001F920F920FB60F9211242F933F934F93F4
:102980005F936F937F938F939F93AF93BF93EF93D7
:10299000FF938091E10082FF09C08091E20082FFF5
:1029A00005C08091E1008B7F8093E1008091DA0087
:1029B00080FF24C08091D80080FF20C08091DA0081
:1029C0008E7F8093DA008091D90080FF9DC080E1E6
:1029D00089BD82E189BD09B400FEFDCF81E080930D
:1029E000AD048091A004811109C00E942F070E94AC
:1029F000D0078091E20084608093E2008091E10042
:102A000080FF17C08091E20080FF13C08091E20038
:102A10008E7F8093E2008091E20080618093E200EB
:102A20008091D80080628093D80019BC85E08093A3
:102A3000AD048091E10084FF2BC08091E20084FF0F
:102A400027C080E189BD82E189BD89B5982F917049
:102A500080FFFBCF8091D8008F7D8093D80080913C
:102A6000E1008F7E8093E1008091E2008F7E809371
:102A7000E2008091E20081608093E2008091AE04E8
:102A8000882309F447C084E08093AD048091AD04AD
:102A90008091E10083FF27C08091E20083FF23C083
:102AA0008091E100877F8093E10082E08093AD0414
:102AB0001092AE048091E1008E7F8093E1008091BE
:102AC000E2008E7F8093E2008091E200806180933B
:102AD000E20042E060E080E00E949E078091F0000A
:102AE00088608093F000FF91EF91BF91AF919F912B
:102AF0008F917F916F915F914F913F912F910F90A7
:102B00000FBE0F901F90189519BC1092AD04109233
:102B1000A00474CF8091E30087FD93E09093AD040F
:102B2000B5CF78941F921FB61F9211248F939F9355
:102B3000AF93BF9380919C0490919D04A0919E04BB
:102B4000B0919F040196A11DB11D80939C049093A8
:102B50009D04A0939E04B0939F04BF91AF919F9159
:102B60008F911F901FBE1F9018959C014FB7F8942E
:102B700080919C0490919D04A0919E04B0919F042B
:102B80004FBF821B930B08952FB7F89480919C043C
:102B900090919D04A0919E04B0919F042FBF089531
:102BA0002F923F925F926F927F928F929F92AF92FD
:102BB000BF92CF92DF92EF92FF920F931F93CF932A
:102BC000DF9380919404882309F427C180919204B3
:102BD000909193040E94B515C29708F4FFC00E941B
:102BE000C415909393048093920480E095E09093B1
:102BF0000707809306070E94EB0F882309F424C17E
:102C000060E870E082EB93E00E94FC088091FD0494
:102C100024E0829FC0011124811562E0960714F020
:102C200090E080E080509B4F9093070780930607C9
:102C300082E394E00E94AE0E88E794E00E94AE0E1C
:102C400080916704909168040097F1F181FF35C08D
:102C500088E694E00E94AE0E88E794E00E94AE0EF3
:102C6000C0916A0480916904C82BDC2FD878C474A1
:102C7000DD2381F181EA94E00E94AE0E8AE994E0BE
:102C8000CC2381F18CE994E00E94AE0E83E994E0BC
:102C9000C11102C080E994E00E94AE0EDD2341F133
:102CA0008DE894E00E94AE0E88E894E00E94AE0E9B
:102CB000C11128C08EE794E027C082FF03C088E5D9
:102CC00094E0C8CF80FF03C088E494E0C3CF88E3DA
:102CD00094E0C0CF8EE994E00E94AE0EC11105C011
:102CE00086E994E00E94AE0ED5CF88E994E0CCCF7F
:102CF0008AE894E00E94AE0ECC2389F186E894E045
:102D00000E94AE0E81E894E00E94AE0EC0916A046B
:102D100080916904C82BDC2FD171C272DD2321F1AF
:102D200087EC94E00E94AE0E80EC94E0CC2321F17D
:102D300082EC94E00E94AE0E89EB94E00E94AE0E0D
:102D4000DD2311F183EB94E00E94AE0E8EEA94E055
:102D50000E94AE0EC11123C084EA94E022C084E830
:102D600094E00E94AE0EA6CF84EC94E00E94AE0EDA
:102D7000C11107C08CEB94E00E94AE0E86EB94E08C
:102D8000DDCF8EEB94E0D6CF80EB94E00E94AE0EC8
:102D9000CC2309F454C08CEA94E00E94AE0E87EA7A
:102DA00094E00E94AE0E0E940E10C82F86ED94E0B3
:102DB000C0FF02C089ED94E00E94AE0E80ED94E069
:102DC000C1FF02C083ED94E00E94AE0E8AEC94E055
:102DD000C2FF02C08DEC94E00E94AE0E8091FE0412
:102DE0009091FF04892BB9F5809191048823A9F073
:102DF0000E948C0800918D0410918E0420918F0404
:102E000030919004601B710B820B930B6F3F7F4FCF
:102E10008F4F9F4710F40E946610DF91CF911F9152
:102E20000F91FF90EF90DF90CF90BF90AF909F9069
:102E30008F907F906F905F903F902F9008958AEAD7
:102E400094E00E94AE0E88CF60E072E08CED94E0DA
:102E50000E94FC08C3CF80919404882329F28091BA
:102E60008C048111C1CF0E9481102091FE04309109
:102E7000FF042115310509F4B7CF80E041E050E0AF
:102E8000082F10E01A01082E02C0220C331C0A94ED
:102E9000E2F7B10162237323672B11F48F5FF0CF48
:102EA00090918B0490FF95C0880F880F880F8093B6
:102EB0005D0110926001895F80935E0183E08093E1
:102EC000610124E630E047E050E06BE571E088E71F
:102ED0000E94632B892B09F087CFA80125E0440FBE
:102EE000551F2A95E1F780918B0480FF84C0EBE6A3
:102EF000F4E080E2DF011D928A95E9F7A9ECB2E0E7
:102F000005EC12E08DECC82E82E0D82E97E0592E09
:102F1000772473948D91E80129918E01240F352F28
:102F2000311D20503B4FE82FF0E0E559FB4F90E07A
:102F300080E0652C681A872C082E01C0880C0A9442
:102F4000EAF77901A12CE701B9907E01B820662D3E
:102F50006A196770962E062E000C770BDB2D01C0C8
:102F6000DD0F9A94EAF7719561957109677077277B
:102F700001C0B6946A95EAF7BD2A6081962E9B2817
:102F80009082A39468E0A612DECF01963196883035
:102F9000910579F6CA16DB0609F0BCCF04E610E00D
:102FA00020E230E04BE654E060E488E70E94842BA6
:102FB000892B09F019CFE101C095D0958091FE04CD
:102FC0009091FF04C823D923D093FF04C093FE043B
:102FD0000BCF8295880F807680935D01980136959E
:102FE00027953695279520936001815E80935E0139
:102FF0002093610166CF40505B4F04E610E020E271
:1030000030E0D2CF0E94C4159C0190918E03809134
:103010008F03982B21F030938B0320938A03909198
:10302000900380919103982B21F030938903209392
:103030008803E0919704F0919804309749F082E07A
:1030400080938C030480F581E02D8CE893E0099552
:103050000895CF9310926904C6E0E2EDF2E0DF013B
:103060008C2F1D928A95E9F790E080E00E94D708A6
:1030700090E080E00E94B20810920A030E94BC0E09
:10308000ECE8F3E0DF011D92CA95E9F710928503A1
:1030900010928603109287030E940218CF91089520
:1030A000AAE2B0E0E6E5F8E10C948E2D8FEA94E018
:1030B0002091F100FC012193CF01F4E0873B9F07B1
:1030C000B9F78091B004833009F470C0B8F481304E
:1030D00009F447C0823009F4B1C08091E80083FF51
:1030E0007EC28091AF049091B0049A3008F077C20C
:1030F000E92FF0E0E15BF14D0C94D62D8A3009F414
:103100008CC08B3009F46FC0893039F78091AF04DF
:10311000813219F78091B3049091B4040297E8F6D4
:103120008091E800877F8093E8008091E80082FF2B
:1031300038C09091F3008091F200029731F48091B1
:10314000F100813011F0863021F48091F1008093FC
:10315000A2048091E8008B778093E8000E947F07AB
:10316000BCCF8091AF04813A09F0B7CF8091E800DD
:10317000877F8093E8008091B3049091B404892BF9
:1031800061F468E083EA94E070E00E942B0880918B
:10319000E8008B778093E800A0CF60E090E080E0CB
:1031A000F3CF8091AD048111C0CF97CF8091AF0450
:1031B000813A09F092CF8091B3049091B404892BA5
:1031C00009F08BCF8091E800877F8093E8008091A1
:1031D000E80080FFFCCF809162018093F100809134
:1031E000E8008E77B9CF8091AF04813209F075CFB6
:1031F0008091B3049091B404892B09F06ECF809133
:10320000E800877F8093E8000E947F078091B104E7
:10321000809362010E94291860CF8091AF048132AF
:1032200009F05BCF8091E800877F8093E8000E94DF
:103230007F078091B2048093A1044FCF8091AF04A7
:10324000813A09F04ACF8091E800877F8093E800B7
:103250008091E80080FFFCCF8091A104BECF803830
:1032600099F0823809F0BBC18091B3048F70873028
:1032700008F0B5C18093E9008091EB0085FB8827B9
:1032800080F91092E90006C08091AB049091AC04E3
:10329000911182609091E800977F9093E80080936D
:1032A000F1001092F1008091E8008E7794C188239C
:1032B00009F482C1823009F092C18091B104811178
:1032C00085C18091B3048F702FEF280F263008F04E
:1032D00086C18093E9002091EB0020FF77C19330F5
:1032E00031F48091EB0080628093EB006FC190918C
:1032F000EB0090619093EB0021E030E001C0220FE1
:103300008A95EAF72093EA001092EA008091EB0098
:103310008860EACF811163C11091B1041F77809159
:10332000E3008078812B8093E3008091E800877F21
:103330008093E8000E947F078091E80080FFFCCF27
:103340008091E30080688093E30082E0111183E0C4
:103350008093AD0444C18058823008F040C1809110
:10336000B1049091B2048C3D23E09207A1F583E073
:103370008A838AE289834FB7F894DE01139620E0AE
:103380003EE051E2E32FF0E050935700E49120FF3C
:1033900003C0E295EF703F5FEF708E2F90E0EA3050
:1033A000C0F0C7968D939D932F5F243159F74FBF7F
:1033B0008091E800877F8093E8006AE270E0CE01A8
:1033C00001960E942B088091E8008B778093E8009B
:1033D00006C1C096E7CF4091B3045091B404292FA1
:1033E00033272330310509F444C078F52130310505
:1033F00009F46FC08BE390E0EBE9F7E02230310590
:1034000009F0EDC02091E800277F2093E80020918B
:10341000B5043091B6048217930708F49C0140E08C
:103420002115310509F064C0411162C08091E800A6
:1034300082FDC9CF8091AD04882329F2853019F22D
:103440008091E80083FFF2CFBECF21323105A9F190
:103450002232310509F0C3C04115510509F443C0BA
:103460004130510509F0BBC08BE790E0ECEDF6E090
:10347000C9CF992781309105C1F0009759F0029783
:1034800009F0ADC0E8EEF7E0E4918E2F90E0E8EEB1
:10349000F7E007C0EAE2F8E0E4918E2F90E0EAE27C
:1034A000F8E0009709F49BC0ADCFE0E1F8E0E491CB
:1034B0008E2F90E0E0E1F8E0F4CF4115510571F076
:1034C0004130510509F08BC089E090E0E6ECF7E06F
:1034D00099CF82E190E0E6EDF7E094CF89E090E0CB
:1034E000EDEAF7E08FCF84E490E0E7E5F7E08ACFFC
:1034F0008091AD04882309F466CF853009F463CF49
:103500008091E80083FD5FCF8091E80082FD8ECF3F
:103510008091E80080FF84CF9091F3008091F200C9
:103520002115310519F08830910550F041E00897D8
:1035300009F040E08091E8008E778093E80070CF3A
:1035400044914093F1003196215031090196E8CF22
:10355000803809F044C08091E800877F8093E800BC
:103560008091AE048093F1009ECE811138C01091FD
:10357000B1041230A0F58091E800877F8093E800C5
:103580001093AE040E947F07112311F084E005C060
:103590008091E30087FDFACF81E08093AD0442E0A3
:1035A00061EC81E00E949E0742E261EC82E00E94B1
:1035B0009E078091AD0413C08091B104813079F4ED
:1035C00081E0933009F080E08093AC041092E90030
:1035D0008091E800877F8093E8000E947F078091B8
:1035E000E80083FF0AC08091E800877F8093E800AD
:1035F0008091EB0080628093EB00AA96E3E00C944C
:10360000AA2D1F920F920FB60F9211242F933F9362
:103610004F935F936F937F938F939F93AF93BF93DA
:10362000CF93DF93EF93FF93D091E900DF70809108
:10363000EC00C82FC17080FDC0E81092E9008091B5
:10364000F000877F8093F00078940E9450181092C9
:10365000E9008091F00088608093F000CD2BCF705E
:10366000C093E900FF91EF91DF91CF91BF91AF91AE
:103670009F918F917F916F915F914F913F912F918A
:103680000F900FBE0F901F9018950E9429182FEFD2
:1036900084E39CE0215080409040E1F700C00000AE
:1036A00088E19CE00FB6F894A895809360000FBE67
:1036B00090936000FFCF662309F45DC08D3C41F418
:1036C0000E94080A819580938F030E940218089532
:1036D0008E3C19F40E94080AF6CF8F3C31F40E9408
:1036E000080A819580938E03F0CF803D19F40E94E3
:1036F000080AF8CF893D29F40E94E60980939003D7
:10370000E4CF8A3D21F40E94E6098195F7CF8B3DF5
:1037100031F40E94E609819580939103D6CF8C3DC8
:1037200019F40E94E609F8CF9FE2980F983070F4E0
:10373000815D990B21E030E001C0220F8A95EAF704
:1037400080918D03822B80938D03BFCF8D3D31F40B
:1037500080918703816080938703B7CF8E3D21F4EA
:10376000809187038260F7CF8F3D09F0AECF8091C3
:1037700087038460F0CF40918E038D3C59F4809193
:103780008F0387FF0DC010928F0341110BC0109261
:10379000850308C08E3C81F480918F0318169CF33A
:1037A000442381F08091900390919103892B09F03B
:1037B0008CCF1092860389CF8F3C49F447FFF0CF1E
:1037C00010928E0380918F038111ECCFE0CF803D6A
:1037D00019F41416ACF3E4CF90919003893D29F4C9
:1037E0001916F4F610929003DBCF8A3D19F497FF77
:1037F000D7CFF8CF909191038B3D29F497FFD0CF8D
:1038000010929103CDCF8C3D19F41916CCF3C8CF8B
:103810009FE2980F983090F4815D990B21E030E0A1
:10382000B90102C0660F771F8A95E2F7CB01809538
:1038300090918D03892380938D03B2CF8D3D31F418
:10384000809187038E7F80938703AACF8E3D21F4DA
:10385000809187038D7FF7CF8F3D09F0A1CF8091B5
:1038600087038B7FF0CF8823D1F19CEF980F913A9B
:1038700078F4E2EDF2E09191891303C0DF01119732
:103880001C9292E0E83DF907B1F70E94BC0E089542
:1038900090E2980F983050F4877091E001C0990F32
:1038A0008A95EAF7892F0E94BA0CEFCF9BE5980F13
:1038B000933028F490E080E00E94D708089598E5BE
:1038C000980F9B3128F490E080E00E94B2080895A0
:1038D00093E3980F933118F460E00E945B1B089506
:1038E000CF93C82F8823B1F08CEF8C0F813A00F56D
:1038F000E2EDF2E088ED92E0DF012D91C21761F078
:103900008A179B07D1F76C2F80ED92E00E949808F0
:103910000E94BC0ECF9108952191C21303C0DF0114
:1039200011971C928E179F07B9F70E94BC0EEBCF20
:1039300080E28C0F883068F4C77021E030E001C06D
:10394000220FCA95EAF780916904822B809369045B
:10395000DFCFEBE5EC0FE33040F4F0E0EE58FE4F44
:10396000808190E00E94D708D5CFE8E5EC0FEB31DD
:1039700050F4F0E0EE0FFF1FEB58FE4F8081918175
:103980000E94B208C7CF83E38C0F833118F661E041
:103990008C2F0E945B1BBECF1F93CF93DF93182FFA
:1039A000EB010E94701C209739F4812F0E94331C78
:1039B000DF91CF911F9108958FE99FE00197F1F773
:1039C00000C000002197EFCF0F931F93CF93DF9399
:1039D000C62FD42F022FFC0185818823A9F0609384
:1039E000F3040E94C4159093F2048093F104C7700D
:1039F00081E001C0880FCA95EAF70E94000FDF91AD
:103A0000CF911F910F9108958091F304681334C0F2
:103A10008091F1049091F2040E94B515883C9105C3
:103A200058F510E21D0FCD17B9F080E28C0F8830E9
:103A300040F4C77081E001C0880FCA95EAF70E9480
:103A4000F90E183048F481E09D2F977001C0880F5F
:103A50009A95EAF70E94000F70E060E0802F0E94C4
:103A6000CC1C183060F6D77081E001C0880FDA9561
:103A7000EAF70E94F90EC3CFC77081E001C0880F3A
:103A8000CA95EAF7F6CF81110CC070E0662331F0D9
:103A900060E089EA0E94CC1C81E0089560E08AEA37
:103AA000F9CF8130C9F770E0662319F060E08EE449
:103AB000F1CF60E08BE4EECFA1E0B0E0E2E6FDE123
:103AC0000C94882DEE24E394F12C07E313E09E017F
:103AD0002F5F3F4F47E253E064E083E00E94791399
:103AE000C82E882339F100E080E01DC0D090580333
:103AF000D00E2D2D30E0A90144585C4F7A01E1E051
:103B0000F0E0EC0FFD1FE00FF11D1081FA01908134
:103B1000191BB12E1B149CF0912F17FD90E0191B5F
:103B2000111118C00F5F909157030917F8F2811116
:103B30000E9439108C2D2196E9E00C94A42DBA94A2
:103B4000F70180818F5F808360E08D2D0E94431D8F
:103B50008C2DE0CF1F5FF70180818150808361E071
:103B60008D2D0E94431D8C2DDBCFB0E0A0E0EBEB50
:103B7000FDE10C94872D8C01FC018481882341F1A7
:103B800021E0408151816281738195810E94DB0D2A
:103B9000EC01FC01E851FC47E730F105A8F5E75AD4
:103BA000F14D0C94D62D26E241EE61EEC8010E9443
:103BB000E41C80910103877059F0F8018581882306
:103BC00039F08091660382FF03C082E00E948C0D71
:103BD000CDB7DEB7EAE00C94A32D27E245EE65EE03
:103BE000E5CF26E241EE60EEE1CF27E245EE64EE5E
:103BF000DDCF26E241EE62EED9CF27E245EE66EE5A
:103C0000D5CF28E241E0EBCFF8018581882309F484
:103C1000CEC31092F304CE019057839708F0B1C33E
:103C200084E090E00E94132E9093660380936503D6
:103C3000FE01E150F047E232F10520F4E05AF14D87
:103C40000C94D62D8091650381608093650395C0A7
:103C5000809166038860809366038FC080916503BE
:103C60008260F3CF809165038460EFCF809165031C
:103C70008860EBCF809166038160EDCF8091660311
:103C80008260E9CF809165038061DFCF8091650319
:103C90008062DBCF809165038064D7CF0E942918B2
:103CA000809165038068D1CF809165038C60CDCF12
:103CB000809166038360CFCF809165038E7FC5CFEF
:103CC00080916603877FC7CF809165038D7FBDCFCD
:103CD000809165038B7FB9CF80916503877FB5CFD6
:103CE000809166038E7FB7CF809166038D7FB3CFBF
:103CF000809165038F7EA9CF809165038F7DA5CFCD
:103D0000809165038F7BA1CF0E9429188091650364
:103D10008F779BCF80916503837F97CF80916603D8
:103D20008C7F99CF8091650382FB992790F921E0E0
:103D3000922790FB82F990FB83F987CF80916603ED
:103D4000982F909591708E7F892B90FB81F983CF6E
:103D500090916503892F8F7B96FF806476CF0E94B8
:103D6000291890916503892F97FB87F980586DCFAB
:103D700061E08EE090E00E94292E609165037091D1
:103D8000660384E090E00E94472E0E94291811CF1C
:103D900060E0EFCF90916503892F8F7E94FF806163
:103DA00054CF90916503892F8E7F90FF81604DCF16
:103DB00090916603892F877F93FF88604CCF809115
:103DC000D80281110FC089E2E2EDF2E028ED32E085
:103DD0009191891303C0DF0111971C922E173F07A1
:103DE000B9F7E2C285E3F0CF8091F50491E089272D
:103DF0008093F504109263018091F40481608093B4
:103E0000F404D7CE4FEB59E069EC79E00E945209F7
:103E1000D0CE49EC59E06FEB79E0F8CF4BEA59E0AE
:103E200065EB79E0F3CF45EB59E06BEA79E0EECF53
:103E300041E959E06EE979E0E9CF4EE959E061E9FD
:103E400079E0E4CF47E759E064E879E0DFCF44E880
:103E500059E067E779E0DACF4BE559E069E679E0C8
:103E6000D5CF49E659E06BE579E0D0CF81E00E94FB
:103E7000F1069FCE0E942918FFEF24E33CE0F150A9
:103E800020403040E1F700C000000E94670F6FEF54
:103E90007FEF90E080E00E94472E0E94451B8091BA
:103EA000660382FB882780F991E089270E944612E9
:103EB000F8018581C081D181882309F44AC0CE01EF
:103EC0000E94CB0CF82E682FCE010E943F0DBE0140
:103ED0008F2D0E947D0B0E949C0BD82FC92FA82EDE
:103EE000F801C580B680B2943FE0B322809101030F
:103EF0008770F1F0EC2CCC20E1F0892F807F8034AA
:103F000051F080E28D0F883098F0B11004C0892FF5
:103F1000807E803269F08091660382FF09C082E072
:103F20000E948C0D809101038770EE24E39481112F
:103F3000E12CDC2ED2942FE0D222FBE0FD1508F418
:103F40006DC0ED2DF0E0EE57F14D0C94D62D80E0D4
:103F5000ADCFCE010E940C0DF82EB9CF2C2F2F70B3
:103F6000F22EC07F19F0F29490EFF922CC20B9F034
:103F7000FF2069F080E28D0F883010F0A11009C099
:103F800080916904F82AF09269040E94BC0E8D2F7A
:103F900043C080910A03F82AF0920A03F6CF8D2FCE
:103FA0000E94331CFF20D1F1D05ED83010F0A11058
:103FB00004C08F2D0E94BA0C06C0F09480910A03B1
:103FC000F822F0920A030E94BC0E28C03C2F3F70DA
:103FD000F32EC07FC03219F0F29480EFF822AA20AD
:103FE00059F081E0A81609F479C0CC2009F485C005
:103FF000BB2009F447C0CBCF8091660382FD3EC051
:10400000CC20B1F1FF2039F080916904F82AF092B8
:1040100069040E94BC0E80E00E94701C2D2D285067
:10402000330B2430310510F40E940E10EE20A9F05D
:104030008091010380FD11C0F80115828695869557
:1040400086950E94A30DC8010E94B51D80910103B1
:104050008695869586950E947A0D20E0F80140812C
:10406000518162817381848195810E94DB0DB0CD85
:1040700080E00E94331CFF2089F29BCFCC20A1F06E
:10408000B11004C08F2D0E94000FC8CF91E0B9126B
:10409000C5CF80916A049F2D9823F91609F4BECFED
:1040A000F82AF0926A04BACFB110B8CF8F2D0E94CF
:1040B000F90E90916A048F2D892329F08F2D809518
:1040C000892380936A048091D9029F2D982309F453
:1040D000A5CFF094F822F092D902A0CFCC2029F0FD
:1040E000E5E0EB1508F49ACFCDCFF4E0FB1508F42A
:1040F00095CF8F2D0E94F90E91CFBB20D1F329E3EC
:10410000A21209C03FEF87EE93E03150804090400B
:10411000E1F700C000008D2F0E94331C7FCF8C2F51
:1041200086958695837069F0813009F077CF8D2F61
:104130009C2F9370C11002C080E090E00E94B208F2
:104140006DCF8D2F9C2F9370C11002C080E090E046
:104150000E94D70863CF6C2D8D2F0E945B1B5ECF12
:104160008C2F837009F03FC0C11058CF4D2F42955E
:1041700046954770440F440F2D2F2F7030E0042ECA
:1041800002C0220F331F0A94E2F790E080E0D4FFD0
:1041900009C08FE090E002C0880F991F4A95E2F7AE
:1041A00080959095C695C695C370C23099F078F405
:1041B00040910B0350910C03C13039F0822B932BAB
:1041C000842395230E94B30D29CF242B352B822BDA
:1041D000932BF8CF822B932B20910B0330910C0360
:1041E00082279327EFCF8695CC2011F08C2F8170FA
:1041F000882309F413CF4D2F429546954770440FFD
:10420000440F2D2F2F7030E0042E02C0220F331FD9
:104210000A94E2F790E080E0D4FF09C08FE090E0DC
:1042200002C0880F991F4A95E2F780959095C69530
:10423000C695C370C23099F078F4409167045091EC
:104240006804C13039F0822B932B842395230E947C
:10425000750DE4CE242B352B822B932BF8CF822B9C
:10426000932B209167043091680482279327EFCF26
:10427000CF70CC2029F08C2F0E94A30D8D2F03CF5F
:104280008D2F0E94F90E8C2F0E947A0DC7CE8D2F94
:10429000E2EFAE1699F1EA1570F0F0EFAF16D1F03B
:1042A00021EFA21691F0CC2009F45BC0B1106FCEC3
:1042B0008C2F8F7127C033EFA31639F194EFA91219
:1042C000F2CF8091660382FD2EC08C2F8F71CC209F
:1042D000D9F218C0CC2069F0E4E0EB1508F49ECECA
:1042E000CF7181E090E002C0880F991FCA95E2F774
:1042F000B8CFF5E0FB1508F491CEF2CF8C2F8F717B
:10430000C110C2CF0E94A30D89CE90E080E0CC20E6
:1043100009F49DCFCF7181E090E002C0880F991F12
:10432000CA95E2F794CFCC2089F0CF718C2F0E94F0
:10433000A30D8091660382FF07C028E0C29FC001E1
:1043400011248360809301038C2FDCCF81E00E94D5
:104350008C0D31E03B1508F061CE82E00E948C0D9F
:104360005DCEBB2059F0893309F0D5CE8FEF97EEA3
:10437000E3E081509040E040E1F7CBCE8C2F8F718D
:1043800083CFC631FCE7DF0729F5809169048A7A7B
:1043900091E009F490E09093D80269E2811165E31D
:1043A00080ED92E00E9498080E94BC0E02CCC631BB
:1043B0002CE7D20709F403CD809169048272FE01D3
:1043C000E052F847E531F10508F072CDE257F14DC2
:1043D0000C94D62DC3303CE7D30709F458CD50F4E4
:1043E000C1159CE7D90709F445CDC130DC4709F474
:1043F00054CD5ECDCB35FCE7DF0709F4A8CDCC3535
:104400002CE7D20709F44BCDCA35DC4709F050CD73
:1044100081E04CCDCF93DF9380910003807F09F042
:104420004DC08091FF02882309F448C0E091F00458
:104430005091B704C091FB02D091FA026091FC0246
:104440007091FD0247E05E17C9F18E2F90E0E49F66
:10445000F0011124E854FB4F2481222391F1489F5D
:10446000F001499FF00D1124DF01A854BB4F1196B4
:104470002C9111972C1325C02C912D1322C0159629
:104480002C91159721111DC012962D913C91261B40
:10449000370B283C3105A8F4809100038F708061B0
:1044A00080930003E254FB4F80818F708061808392
:1044B0008AEF92E00E94B51D0E94C10CDF91CF915E
:1044C0000895FC013196E770BECFA4E1B0E0EBE6C1
:1044D000F2E20C94852D8C0186E0F801DE011F9636
:1044E00001900D928A95E1F7F8018481E5809AEFB9
:1044F000A92E92E0B92E9091FE02911128C0882336
:1045000019F1EE20F1F0C8010E94B80DF82E8823B1
:10451000C1F087E0F801D50101900D928A95E1F78D
:104520008091FE02813031F48091FA029091FB0279
:104530000E94FF0C0E940A228F2D6496ECE00C94DE
:10454000A12DC8010E94B51DFF24F394F5CFD080A2
:10455000C18082809380F090FF022091FC02309114
:10456000FD02A401421B530BFF2009F4D9C0483CB3
:10457000510508F092C08823F9F29091FB028091D6
:104580000003282F207F09F056C0C91214C0909153
:10459000FA02D91210C0E11048C08F708061809378
:1045A00000038AEF92E00E94B51D80910003F8019C
:1045B0008683F12CC1CFE11038C06C2D8D2D0E9467
:1045C00000076C2D8D2D0E940007E82E8111F1CF80
:1045D000DF86C88A8F8598890E94FF0C292F229533
:1045E0002F70243058F49F70223088F0992399F06E
:1045F000F8019681907F79F4FE2C9ECF2A5F2F7070
:10460000223068F0C8010E94B51DEF2CF5CF992328
:1046100011F0882389F3805E883070F3F3CF803FF8
:1046200058F3815F833070F7E7CF8091000381609A
:1046300080930003BECFC91207C09091FA02D9122D
:1046400003C0EE2009F48DC0C8010E94B80D882374
:1046500009F477CFEE2009F474CF80910003803203
:1046600088F02091FA023091FB02398728879B86D7
:104670008A869091FE029C871D868E87CE010896C1
:104680000E94B51D87E0F801AAEFB2E001900D92FB
:104690008A95E1F70E940A2257CF90910003292FB3
:1046A000207F51F48AEF92E00E94B51D87E0F5016A
:1046B00011928A95E9F77DCF882309F43DCF809147
:1046C000FB028C1110C08091FA02D8120CC0E110CC
:1046D0000AC09683C8010E94B51D87E0F5011192BA
:1046E0008A95E9F729CFC8010E94B80D882309F4FB
:1046F00028CFEE2009F425CF80910003803210F2FC
:104700002091FA023091FB023A8329839C828B82AA
:104710009091FE029D831E828F83CE010196B0CFC1
:10472000483C5105D0F6882309F40ECFFE2CEE202C
:1047300009F407CF8091FB028C1120C08091FA020E
:10474000D8121CC08091000380FD0FC0982F907F6D
:1047500061F08683903F31F0982F907F905F8F704B
:10476000892B8683C8010E94B51D87E0F801AAEF56
:10477000B2E001900D928A95E1F7DECEC8010E9469
:10478000B80D81117FCF8091000381608093000379
:10479000C8010E94B51DD0CEABE1B0E0E2EDF3E27E
:1047A0000C948D2D4E8B5F8B688F798F8A8F9B8FAA
:1047B000192F911110920A031D8A86E0FE01769648
:1047C000DE011F9601900D928A95E1F70A8D002374
:1047D00041F021E04F85588969897A89C8010E9492
:1047E000DB0D0B8B1C8B87E0FE013F96DE011896DC
:1047F00001900D928A95E1F7CE0108960E946522FC
:1048000081112AC087E0FE013896DE0111960190E1
:104810000D928A95E1F78C858823F1F02091B704F9
:1048200030E0C9010196877099274091F00448173C
:104830001906E9F097E0929FD001939FB00D1124E3
:10484000A854BB4FFE01319601900D929A95E1F765
:104850008093B7040E94C10C17E08091F0049091FE
:10486000B704891312C06B96E4E00C94A92D0E9442
:1048700029181092B7041092F00487E0EAEFF2E0F2
:10488000DF011D928A95E9F7E7CF819FC0011124CE
:1048900088549B4F0E946522882329F38091F0045D
:1048A00090E00196877099278093F004D6CFAFE00F
:1048B000B0E0EDE5F4E20C94832D8E010F5F1F4F05
:1048C0008AE0D8011D928A95E9F790E4E92E91E0FB
:1048D000F92E99249394CC24C394D12C3BE4A32E99
:1048E00031E0B32EF70181917F018F3F09F447C07A
:1048F000F894E82FE295EF70F0E021A18F70A60107
:1049000002C0440F551F8A95E2F7CA01922F982BD7
:1049100091A392A18095892382A3789400C086E414
:10492000682E81E0782ED801692D6095F301919170
:104930003F018D919D01215031099F3F09F466C0CF
:10494000492F42954F7050E0FA0140A150E09F700E
:1049500002C0559547959A95E2F740FD57C08929C1
:10496000F9018083A614B70409F7F7013197808114
:104970008F3F11F00E94750AF0EAFA95F1F7990C51
:1049800026E4E21621E0F20609F0ACCF4AE050E05E
:10499000B80189E593E00E94E52D009741F02AE0F7
:1049A000F801A9E5B3E001900D922A95E1F7009195
:1049B0006403892B69F181E0809311030E94C4157F
:1049C0009093100380930F0380910F039091100335
:1049D0000E94B515059700F110E009591C4F45E0FC
:1049E00050E069E573E0C8010E94E52DD12C892BC8
:1049F00051F085E0E9E5F3E0D80101900D928A9548
:104A0000E1F7DD24D3941092110307C08623A8CFC9
:104A1000809111038111D8CFD12C0E94EB0FC82EA9
:104A2000E0916403AE01455F5F4F7A01882309F48A
:104A30008EC085E0DA011D928A95E9F70E2F10E00D
:104A400009591C4F809152038A3008F04DC04EE145
:104A500054E1B701C8010E94B80F882309F466C069
:104A60004DE553E1B701C8010E94B80F882309F44E
:104A70005DC04CE55DE1B701C8010E94B80F882315
:104A800009F454C04DE552E1B701C8010E94B80FC6
:104A9000882309F44BC043E353E1B701C8010E94E6
:104AA000B80F882309F442C044E153E1B701C801BB
:104AB0000E94B80F8823D1F11092520380916303B2
:104AC00090E045E050E0B70189599C4F0E94E52DE8
:104AD00021E020931803892BE1F4C12C8C2D8D2922
:104AE0002F96EEE00C949F2D80911203909113036A
:104AF0000E94B515843F914008F0A9CF809118031A
:104B0000882359F385E0F70111928A95E9F710920D
:104B10001803A0916303B0E0A959BC4F85E0FE01E2
:104B20003B9601900D928A95E1F7D8CF8091520380
:104B30008F3F31F08F5F809352038A3008F4BECFED
:104B40000E94C4159093130380931203D7CF009152
:104B5000630310E009591C4FF0E0E959FC4F85E070
:104B6000ACE2B3E001900D928A95E1F765E070E068
:104B70008CE293E00E943C0980932B0385E0E1E303
:104B8000F3E0D80101900D928A95E1F740918103FD
:104B900050E06091800370E064587C4FC7010E9430
:104BA000F22D8B858093370361E070E0C7010E948E
:104BB0003C09809336038090380390903903A0908D
:104BC0003A03B0903B038091140390911503A09198
:104BD0001603B091170388169906AA06BB06D1F0F2
:104BE0008092140390921503A0921603B0921703BB
:104BF0000E94EB0F81110EC00E948C08861A970A42
:104C0000A80AB90A8092530390925403A0925503C4
:104C1000B092560388E0ECE3F3E0A5EFB4E0019036
:104C20000D928A95E1F780914503882319F00E943F
:104C3000811054CF0E94661051CFA6E0B0E0E3E2AD
:104C4000F6E20C948D2D0E94C4158C0180910D0309
:104C500090910E038017910781F019821A820E94A9
:104C6000C415682F49815A81792F80E090E00E9415
:104C7000CC2310930E0300930D032696E4E00C94CE
:104C8000A92D1F921FB61F9211248F939F93AF934C
:104C9000BF9380919B04811113C080919C049091DB
:104CA0009D04A0919E04B0919F044196A11DB11D49
:104CB00080939C0490939D04A0939E04B0939F04C2
:104CC000BF91AF919F918F911F901FBE1F9018951C
:104CD000CDB7DEB72C970FB6F894DEBF0FBECDBFB1
:104CE00085B7806885BF85B7806885BF84B7877FB3
:104CF00084BF0FB6F894A895809160008861809376
:104D00006000109260000FBE80E890E00FB6F8944B
:104D100080936100909361000FBE86E39AE09093C8
:104D2000CF028093CE020E942F070E94D00780916D
:104D3000E20084608093E20078948091AD0488233F
:104D4000A1F01091E9001F709091EC00892F817003
:104D500090FD80E8182B1092E9008091E80083FD17
:104D60000E9450181F701093E90082E084BD93E008
:104D700095BD9AEF97BD80936E00109253031092E9
:104D80005403109255031092560385988D988FE81E
:104D900091E00197F1F700C000000E94380A80936B
:104DA0004B010E94EB0F81110E94092C90914B0145
:104DB00081E0982790938003A82FA91BA093580304
:104DC00090914B018093810390914B018093570305
:104DD00080914B01811106C087EF8093550186EFCA
:104DE0008093540120915501E22FE295EF70F0E09D
:104DF00061A12F7081E090E0AC0101C0440F2A95C1
:104E0000EAF7342F3095362331A322A1242B22A395
:104E100020915401E22FE295EF70F0E031A12F7064
:104E200001C0880F2A95EAF7982F9095932391A3B4
:104E300092A1892B82A38FE891E00197F1F700C03E
:104E400000001091810362E873E045E551E084E5DC
:104E5000E82E81E0F82EFB0128C0DA012D91AD018A
:104E6000822F82958F7090E0DC0190968C9190E07B
:104E70002F7002C0959587952A95E2F78170D7012A
:104E80009D917D01292F22952F7030E0D9019096B8
:104E90002C9130E09F7002C0359527959A95E2F7E6
:104EA00090E020FD92E0892B81938E2F861B811745
:104EB000A0F280914B0181112CC085E0E7E6F1E082
:104EC000DE01179601900D928A95E1F78F8180930C
:104ED00046018885809347018985809348018A85AA
:104EE000809349018B8580934A0186E0ECE6F1E0EE
:104EF000DE01119601900D928A95E1F7FE0131963F
:104F0000A0E4B1E0CE01079621912D93E817F907AF
:104F1000D9F780914B0195E0811190E09093640363
:104F200085E0891B8093630300E411E056E4E52EDD
:104F300051E0F52EF80181918F018F3F11F00E9411
:104F4000750AE016F106B1F706E411E0D8018D917B
:104F50008D018F3F11F00E94750AB1E00B341B07E1
:104F6000A9F78AE0E7E6F3E0DF01282F1D922A95F2
:104F7000E9F7E9E5F3E0DF011D928A95E9F790E0B2
:104F800080E00E94132E863E9E4F11F00E944A142C
:104F900082E090E00E940B2E8093710384E090E009
:104FA0000E94132E90936603809365030E945724FA
:104FB000EFEFF6E721E0E150F0402040E1F700C0DC
:104FC00000000E9457240E94380AE5E08111E0E0C9
:104FD000F0E0E959FC4F808180FF08C06FEF7FEF60
:104FE00090E080E00E94472E0E94670F83E090E0EF
:104FF0000E940B2E90E00E94B30D0E94580990E091
:1050000080E00E94132E863E9E4F21F00E944A149B
:105010000E942B1281E08093F40448E050E068E1A4
:1050200070E085EF94E00E94FB2D1092F4048091D3
:10503000F5048C7F11F40E942B1283E080938B0483
:1050400080E28093FD040E94C32A6BE070E083EA53
:1050500092E00E943C108823E9F180918B0465E086
:1050600070E081FDA2C08EE992E00E943C1088238E
:1050700089F16DE070E08CE892E00E943C1088239A
:1050800049F10E948C08605A75418F4F9F4F609381
:105090008D0470938E0480938F0490939004E0E0CD
:1050A000F5E080E092E0DF019C011D92215030404C
:1050B000E1F7F0930707E09306078FEF9FEF9093D8
:1050C000FF048093FE0481E0809394048093910414
:1050D00010928C040E94EB0F811102C00E940C2CD4
:1050E0008CE491E0909398048093970428E1E22E59
:1050F000F12C30E4632EAA24A39444E0C42ED12CD6
:105100008091AD0400E112E1853009F489C00E946C
:10511000572402E713E097E6892E93E0992E2CE7B7
:1051200033E0D401F80191918D912E173F0709F4D6
:1051300081C09817C1F30E94EB0F282EB12CD40127
:105140007D904D01F80131908F01371429F1512CD8
:10515000442443943724832D8421B1F02220A1F0EC
:105160005F82B8860E94C4159A878987AB8691E0D2
:10517000872D842109F490E09C874F8158856985AB
:105180007A858B850E94CC235394440CF6E05F1201
:10519000E2CFF80131977082B3942AE0B212CFCFF8
:1051A0000E941F10772473944AC089E992E05DCF72
:1051B0008091AD04843029F10E94A9100E946610EC
:1051C00010929B040FB6F894A895E09260000FBE71
:1051D0006092600083B7817F846083BF83B7816002
:1051E00083BF7894889583B78E7F83BF0FB6F8947A
:1051F000A8958091600088618093600010926000A3
:105200000FBE8091AC04882359F00E945724E7E632
:10521000F3E08191811193C133E0E137F307C9F7DE
:105220008091AD04853009F4C3CF0E9429180E94F3
:105230000E106DCF98137FCF0E941D26712C0E94F7
:10524000EB0F0E94A910912C812C8091810398165C
:1052500050F0882009F486C00E9439100E94D015B1
:105260000E94811083C0092D10E0F801EB5AFE4F17
:105270008081E82FE295EF70F0E0E0A1F0E08F7020
:1052800002C0F595E7958A95E2F7E170D801AC5A2E
:10529000BE4F2C91A22FA295AF70B0E090968C914A
:1052A00090E02F7002C0959587952A95E2F780FDD2
:1052B00051C080E08E2BD801AE57BC4FEC919E2F91
:1052C0009370891709F444C0EE0FEE0FE82BEC93AE
:1052D000B0908003B90CEF70F0E0E355FE4F025838
:1052E0001C4F8081D8019C91890F8C93512C843064
:1052F00084F0EB2DF0E0E458FC4F80818F5F8083D9
:105300000E94EB0F582E882339F160E08B2D0E940C
:10531000431DF80180818D3F84F4EB2DF0E0E458CB
:10532000FC4F8081815080830E94EB0F582E882390
:10533000B1F061E08B2D0E94431DD8018C91082EA5
:10534000000C990BB6010E94C22DF80180838528BC
:1053500093947BCF82E0AECF55245394DACF55247B
:105360005394EBCF0E94D01571107ACF86E0ECE811
:10537000F3E0DE01119601900D928A95E1F780909D
:105380008D03B0908E0300918F0390909003109145
:10539000910310928E0310928F031092900310923B
:1053A0009103802F8B2909F445C080918A03909145
:1053B0008B030E94B5159C0190918503992309F4F4
:1053C000DDC025313105B0F19F3F19F09F5F90930B
:1053D0008503BB2059F00E94080A9FEF1B140CF4B0
:1053E00091E0899F802D112480938E03002359F032
:1053F0000E94080A91E010160CF09FEF899F802D03
:10540000112480938F0380918E03882399F07090EC
:105410008F03772079F00E94280A882309F483C03B
:1054200080938E03872D0E94280A882309F47EC06A
:1054300080938F03812F892909F444C080918803C8
:10544000909189030E94B5159C0190918603992340
:1054500009F48FC021353105A8F19F3F19F09F5FF6
:1054600090938603992059F00E94E6099FEF191442
:105470000CF491E0899F802D1124809390031123D7
:1054800059F00E94E60991E011160CF09FEF899FF8
:10549000802D11248093910380919003882391F0B3
:1054A00090909103992071F00E94280A882309F4B2
:1054B00040C080939003892D0E94280A8823E1F13F
:1054C0008093910380918D03881216C080918E0382
:1054D000882311F08B1110C020918F03222311F02B
:1054E00002130AC090919103992311F0191304C07B
:1054F000309190033323C9F10E94021886E0FE0127
:105500003196ACE8B3E001900D928A95E1F70E94E4
:105510000E1090918403891709F4F2CD80938403CF
:105520000E948C08EDCDA0928E037CCFA0928F03B9
:1055300081CFA0929003BFCFA0929103C3CF09BDAA
:1055400019BD09B400FEFDCF8091D8008F7D8093F6
:10555000D8008091E00082608093E0008091E000BC
:1055600081FDFCCF0E9429185BCE822B892B31F262
:10557000C3CF2B30310508F072CFA4CF2B303105CB
:1055800008F024CF57CF1092B9008CE08093B80078
:105590000895B0E0A0E0EFECFAE20C94862DB82E6E
:1055A000EB010E94C4156C01EE24E394F12CC4318C
:1055B000D10560F025E0E22EF12CCF3FDC0731F081
:1055C000CE0164E170E00E946B2D7B0184EAA82E7D
:1055D00094E8992E1092BC00A092BC000E94C415C1
:1055E0008C018091BC0087FF0DC08091B900887F3D
:1055F0008830F9F08091B900887F8031D1F00FEFC9
:105600001FEF08C0C8010E94B515E816F90648F753
:105610000EEF1FEFCF3FDC07E9F2C6010E94B51580
:10562000C817D907B8F6C801CDB7DEB7EBE00C94C0
:10563000A22DB092BB009092BC000E94C4158C01B8
:105640008091BC0087FF0AC08091B900887F8831B3
:1056500011F08034A1F610E000E0E5CFC8010E940F
:10566000B515E816F90660F7D3CF0F931F93CF93C4
:10567000DF93EB018093BB0084E88093BC000E9421
:10568000C4158C018091BC0087FF11C02091B90026
:10569000287F81E090E0283211F490E080E091953D
:1056A00081959109DF91CF911F910F910895CF3F7F
:1056B000DC0741F3C8010E94B515C817D90710F7D8
:1056C0008EEF9FEFEFCFB0E0A0E0E9E6FBE20C94B5
:1056D000892D6B018A017901B9010E94C92AE6016D
:1056E0000C0D1D1DC017D10711F097FF08C024E94C
:1056F0002093BC00CDB7DEB7E8E00C94A52DB70130
:1057000089910E94352BEECFB0E0A0E0EAE8FBE201
:105710000C94892DC62F6A017901B8010E94C92A0B
:1057200097FD0CC0B8018C2F0E94352BE601EC0CC4
:10573000FD1CCE15DF0511F097FF08C024E920936A
:10574000BC00CDB7DEB7E8E00C94A52DB801899177
:105750000E94352BEECF84E98093BC0008958EE142
:105760004A9B02C08150E1F74A9BFECF08955A98A8
:1057700080E28A95F1F75A9A0895FC013BE03A9548
:10578000F1F798E020E080E031E040E14A95F1F760
:10579000880F4A9B02C08160232742E04A95F1F7B7
:1057A000000040E14A95F1F7915079F790E19A9520
:1057B000F1F799B132E03A95F1F7000040E14A95EE
:1057C000F1F792FB992790F992272081920F90830D
:1057D0000895A1E0B0E0EFEEFBE20C948B2D19826E
:1057E0008C017C01E60EF11C0E151F0541F481E0D1
:1057F0009981911180E02196E6E00C94A72D0E94FA
:10580000AF2BCE0101960E94BD2BF80181938F0131
:10581000EBCF529A5A9A089552985A9AEA9AE9E620
:10582000F0E080818F7C808308956150770B91E058
:1058300001C0990F6A95EAF720E031E0911108C0A4
:10584000222391F05A9A80E28A95F1F75A980895A6
:10585000492F482339F05A9A232740E24A95F1F715
:105860009695ECCF5A98F9CF5A98EDCFFF920F93B7
:105870001F93CF93DF93EC018C01060F111DC0170E
:10588000D10729F4CDB7DEB7E5E00C94A82DF99047
:105890000E94B72B68E08F2D0E94152CF0CF1F922D
:1058A0000F920FB60F9211240F931F932F933F93D4
:1058B0004F935F936F937F938F939F93AF93BF9318
:1058C000EF93FF93CF93DF930F92CDB7DEB719829B
:1058D0000E94AF2BCE0101960E94BD2B082F06958A
:1058E00006950695282F22952570902F9570290FE3
:1058F000922F937026952695920F982797708981FD
:10590000982B09F05CC0093008F059C080E18A95F5
:10591000F1F75A9A529A82E08A95F1F700C05A98A4
:1059200088E0089F80011124D801A050BF4F16962F
:10593000ED91FC9117973097A9F06091AB017091B0
:10594000AC0114962D913C911597260F371F119697
:105950008D919C911297680F791F13964C91139714
:105960008C910995F801E050FF4F6381662351F057
:105970002091AB013091AC0184819581820F931FFE
:105980000E94362C0E94B72B80E18A95F1F75A9835
:1059900052985A9A80E18A95F1F7F801E050FF4F4A
:1059A0006081662351F02091AB013091AC0181817F
:1059B0009281820F931F0E94E92B0E94AF2B0F90C0
:1059C000DF91CF91FF91EF91BF91AF919F918F9117
:1059D0007F916F915F914F913F912F911F910F9107
:1059E0000F900FBE0F901F9018950F931F93CF939A
:1059F000DF93EC0109970CF04CC0F894529A5A9836
:105A000085E08A95F1F700009C2F969595708C2F74
:105A10008570980F892F83709695969523E0CC0F0B
:105A2000DD1F2A95E1F7980F8E01092B0E94B72BF5
:105A300000C068E0802F0E94152C80E18A95F1F764
:105A400052985A9A4A9B1EC087E090E04A991CC01F
:105A5000FE01E050FF4F63816623F9F02091AB0116
:105A60003091AC0184819581820F931F0E94E92BB4
:105A7000811113C0529A5A9A7894DF91CF911F9155
:105A80000F91089500C0DECF019729F4529A5A9AD7
:105A9000789480E0F2CF00C0D9CF0E94AF2B80E293
:105AA0008A95F1F75A98529A80E18A95F1F7C05099
:105AB000DF4F6881662351F02091AB013091AC013A
:105AC00089819A81820F931F0E94362C0E94B72BE6
:105AD000789481E0D2CFAA1BBB1B51E107C0AA1F5B
